:020000040000FA
:100000000C9462000C948A000C948A000C948A0070
:100010000C948A000C948A000C948A000C948A0038
:100020000C948A000C948A000C948A000C948A0028
:100030000C948A000C948A000C948A000C948A0018
:100040000C94D0020C948A000C948A000C948A00C0
:100050000C948A000C948A000C948A000C948A00F8
:100060000C948A000C948A000000000024002700F1
:100070002A0000000000250028002B0000000008D6
:10008000000201000003040700000000000000005F
:1000900000000000230026002900040404040404D6
:1000A0000404020202020202030303030303010227
:1000B00004081020408001020408102001020408F6
:1000C0001020420411241FBECFEFD8E0DEBFCDBF09
:1000D00011E0A0E0B1E0EAE5FCE002C005900D927D
:1000E000A831B107D9F721E0A8E1B1E001C01D9224
:1000F000AB33B207E1F710E0C2E6D0E004C02197CD
:10010000FE010E942506C136D107C9F70E945F0390
:100110000C942B060C940000AF92BF92CF92DF920A
:10012000EF92FF920F931F93CF93DF936C017B01AC
:100130008B01040F151FEB015E01AE18BF08C0173D
:10014000D10759F06991D601ED91FC910190F081B0
:10015000E02DC6010995892B79F7C501DF91CF9173
:100160001F910F91FF90EF90DF90CF90BF90AF90D5
:10017000089590E0FC01E458FF4F2491FC01E25502
:10018000FF4F3491FC01E656FF4FE491EE23C9F096
:10019000222339F0233001F1A8F4213019F1223063
:1001A00029F1F0E0EE0FFF1FEE58FF4FA591B4913B
:1001B0008FB7F894EC91611126C030953E233C93A3
:1001C0008FBF08952730A9F02830C9F0243049F7AF
:1001D000809180008F7D03C0809180008F77809315
:1001E0008000DFCF84B58F7784BDDBCF84B58F7D72
:1001F000FBCF8091B0008F778093B000D2CF8091F9
:10020000B0008F7DF9CF3E2BDACFCF93DF9390E014
:10021000FC01E255FF4F249186569F4FFC018491CB
:100220008823D1F090E0880F991FFC01E859FF4F17
:10023000A591B491FC01EE58FF4FC591D491611185
:100240000EC09FB7F8948C91E22FE0958E238C938B
:100250002881E223E8839FBFDF91CF9108958FB774
:10026000F894EC91E22BEC938FBFF6CF089590E0D9
:1002700080E008958F929F92AF92BF920F931F9349
:10028000CF93DF93CDB7DEB7A1970FB6F894DEBF5B
:100290000FBECDBF19A2423008F44AE08E010F5DB7
:1002A0001F4F842E912CB12CA12CA50194010E94EA
:1002B0000306E62FB901CA01EA3044F5E05DD80132
:1002C000EE938D01232B242B252B79F790E080E0F2
:1002D000109769F0FD0101900020E9F73197AF0117
:1002E0004A1B5B0BBD0183E291E00E948C00A1964A
:1002F0000FB6F894DEBF0FBECDBFDF91CF911F9137
:100300000F91BF90AF909F908F900895E95CD7CFE9
:10031000CF93DF93EC0160E08E810E94B90061E031
:100320008E810E94B90060E08E810E94B9008BE846
:1003300091E00197F1F7DF91CF910895CF92DF928D
:10034000EF92FF920F931F93CF93DF936C017C0189
:1003500087E0E80EF11CD0E0C0E0062F10E0B80105
:100360000C2E02C0759567950A94E2F76170F7014B
:1003700081917F010E94B9002196C430D10579F79F
:10038000C601DF91CF911F910F91FF90EF90DF9009
:10039000CF900C948801CF92DF92EF92FF920F934F
:1003A0001F93CF93DF93EC01F62E642F8C810E9474
:1003B000B9008D818F3F19F060E00E94B9000F2DC8
:1003C00010E08F8584FF25C06E0187E0C80ED11C28
:1003D000F12CE12CB8010E2C02C0759567950A949A
:1003E000E2F76170F60181916F010E94B900FFEFA1
:1003F000EF1AFF0A88E0E816F10461F7CE01DF91F9
:10040000CF911F910F91FF90EF90DF90CF900C94C0
:100410008801B80184E0759567958A95E1F7CE016A
:100420000E949E016F2DCE01DF91CF911F910F9100
:10043000FF90EF90DF90CF900C949E0140E0682FEA
:1004400083E291E00C94CB01CF93DF93823029F4C7
:10045000909132019860909332018093360110920E
:10046000370180E48093380180E18093390180E591
:1004700080933A0161E0809127010E9405018091FB
:1004800028018F3F19F061E00E94050161E0809131
:1004900029010E940501C3E2D1E09E0123523140AF
:1004A0008091320184FD0BC084E090E021962817F2
:1004B000390744F461E08E810E940501EECF88E0A7
:1004C00090E0F4CF8BE39DE00197F1F760E080913D
:1004D00027010E94B90060E0809129010E94B900C3
:1004E000809128018F3F19F060E00E94B90080914F
:1004F000320184FD39C063E083E291E00E949E01F5
:10050000CBE4D6E4CE010197F1F763E083E291E01A
:100510000E949E012197F1F763E083E291E00E943F
:100520009E0183E592E00197F1F762E083E291E0BA
:100530000E949E018091320180620E941E0284E02E
:10054000809333018CE00E941E0281E00E941E0213
:100550008BE39FE10197F1F782E08093340186E01D
:10056000DF91CF910C941E0280620E941E028BE4E8
:1005700096E40197F1F78091320180620E941E0299
:1005800083E592E00197F1F78091320180620E9449
:100590001E02D0CF41E00E94CB0181E090E008959F
:1005A0001F920F920FB60F9211242F933F938F93A8
:1005B0009F93AF93BF9380911D0190911E01A091D5
:1005C0001F01B091200130911C0123E0230F2D3732
:1005D00058F50196A11DB11D20931C0180931D01AA
:1005E00090931E01A0931F01B093200180911801E8
:1005F00090911901A0911A01B0911B010196A11DC2
:10060000B11D8093180190931901A0931A01B09322
:100610001B01BF91AF919F918F913F912F910F90AF
:100620000FBE0F901F90189526E8230F0296A11D6C
:10063000B11DD2CFCF92DF92EF92FF920F931F9313
:10064000E82FF92F05C0015011092109310961F185
:10065000908196239417B9F305C00150110921091F
:10066000310911F1908196239413F7CFC12CD12C2D
:10067000E12CF12C0AC08FEFC81AD80AE80AF80A50
:100680000C151D052E053F0579F080818623841702
:1006900091F36C2D7D2D8E2D9F2D1F910F91FF902D
:1006A000EF90DF90CF90089560E070E080E090E000
:1006B0001F910F91FF90EF90DF90CF900895789465
:1006C00084B5826084BD84B5816084BD85B5826057
:1006D00085BD85B5816085BD80916E008160809308
:1006E0006E00109281008091810082608093810071
:1006F0008091810081608093810080918000816081
:10070000809380008091B10084608093B1008091DB
:10071000B00081608093B00080917A008460809303
:100720007A0080917A00826080937A0080917A00CA
:10073000816080937A0080917A00806880937A004B
:100740001092C10082E00E94240261E089E00E94D0
:10075000050160E088E00E940501C3E0D0E093E27B
:10076000E92EF12C26EBC22E20E0D22E32EAA32E67
:1007700030E0B32E40E0842E40E0942E60E089E02B
:100780000E94B900CE010197F1F761E089E00E9473
:10079000B900C7010197F1F760E089E00E94B90054
:1007A000F6016491F5018491E82FF0E0EE0FFF1F50
:1007B000E057FF4F8591949100E412E42FE030E080
:1007C000462F0E941A03611571058105910529F0D4
:1007D0006F5F7F4F8F4F9F4F9F700E940A0526E9E2
:1007E00033E44BE05DE30E9496052AE939E949EFDD
:1007F0005FE30E9460040E94D20470932201609320
:100800002101E1E0809136018111E0E0E195F0E025
:10081000ED5DFE4F848980680E941E0246E050E034
:100820006CE071E083E291E00E948C004090210135
:1008300050902201052C000C660877084AE0C3019D
:10084000B20177FE0EC041E06DE283E291E00E94CA
:10085000CB0166277727CB016419750986099709AB
:100860004AE00E943A0143E050E063E171E083E234
:1008700091E00E948C008114910409F47FCF0E94C2
:1008800000007CCFE3E2F1E01382128284E091E089
:100890009183808387E084838FEF858386E08683DE
:1008A00085E0878384E0808783E0818782E0828798
:1008B0001386148615861686178681E00C9424020A
:1008C0000E9474040C945C050E94550558F00E9427
:1008D0004E0540F029F45F3F29F00C944505511175
:1008E0000C9490050C944B050E946D0568F39923B8
:1008F000B1F3552391F3951B550BBB27AA2762171C
:100900007307840738F09F5F5F4F220F331F441F28
:10091000AA1FA9F335D00E2E3AF0E0E832D091505C
:100920005040E695001CCAF72BD0FE2F29D0660F49
:10093000771F881FBB1F261737074807AB07B0E88C
:1009400009F0BB0B802DBF01FF2793585F4F3AF092
:100950009E3F510578F00C9445050C9490055F3F3F
:10096000E4F3983ED4F3869577956795B795F79518
:100970009F5FC9F7880F911D9695879597F9089500
:10098000E1E0660F771F881FBB1F6217730784079C
:10099000BA0720F0621B730B840BBA0BEE1F88F7AB
:1009A000E09508950E94D9046894B1110C949005C3
:1009B00008950E94750588F09F5798F0B92F9927E0
:1009C000B751B0F0E1F0660F771F881F991F1AF03A
:1009D000BA95C9F714C0B13091F00E948F05B1E00B
:1009E00008950C948F05672F782F8827B85F39F00A
:1009F000B93FCCF3869577956795B395D9F73EF4D3
:100A000090958095709561957F4F8F4F9F4F08957A
:100A1000E89409C097FB3EF4909580957095619598
:100A20007F4F8F4F9F4F9923A9F0F92F96E9BB274E
:100A30009395F695879577956795B795F111F8CFCA
:100A4000FAF4BB0F11F460FF1BC06F5F7F4F8F4F35
:100A50009F4F16C0882311F096E911C0772321F02B
:100A60009EE8872F762F05C0662371F096E8862FC3
:100A700070E060E02AF09A95660F771F881FDAF71A
:100A8000880F9695879597F9089597F99F6780E85D
:100A900070E060E008959FEF80EC089500240A94D0
:100AA0001616170618060906089500240A94121649
:100AB0001306140605060895092E0394000C11F47C
:100AC000882352F0BB0F40F4BF2B11F460FF04C029
:100AD0006F5F7F4F8F4F9F4F089557FD9058440F82
:100AE000551F59F05F3F71F04795880F97FB991F8D
:100AF00061F09F3F79F0879508951216130614064A
:100B0000551FF2CF4695F1DF08C0161617061806D6
:100B1000991FF1CF86957105610508940895E894B1
:100B2000BB2766277727CB0197F908950E94A9056F
:100B30000C945C050E944E0538F00E94550520F08B
:100B4000952311F00C9445050C944B0511240C943D
:100B500090050E946D0570F3959FC1F3950F50E0CD
:100B6000551F629FF001729FBB27F00DB11D639F5F
:100B7000AA27F00DB11DAA1F649F6627B00DA11D05
:100B8000661F829F2227B00DA11D621F739FB00DAB
:100B9000A11D621F839FA00D611D221F749F33271B
:100BA000A00D611D231F849F600D211D822F762FB4
:100BB0006A2F11249F5750409AF0F1F088234AF091
:100BC000EE0FFF1FBB1F661F771F881F91505040FD
:100BD000A9F79E3F510580F00C9445050C949005B3
:100BE0005F3FE4F3983ED4F3869577956795B79584
:100BF000F795E7959F5FC1F7FE2B880F911D96959E
:100C0000879597F90895A1E21A2EAA1BBB1BFD0137
:100C10000DC0AA1FBB1FEE1FFF1FA217B307E407DB
:100C2000F50720F0A21BB30BE40BF50B661F771F33
:100C3000881F991F1A9469F7609570958095909513
:100C40009B01AC01BD01CF010895EE0FFF1F059080
:100C5000F491E02D0994F894FFCF00000000CA023F
:100C60008C00370136014A6172616B3A0020636D76
:020C7000000082
:107E0000112484B714BE81FFF0D085E080938100F7
:107E100082E08093C00088E18093C10086E0809377
:107E2000C20080E18093C4008EE0C9D0259A86E02C
:107E300020E33CEF91E0309385002093840096BBD3
:107E4000B09BFECF1D9AA8958150A9F7CC24DD24C4
:107E500088248394B5E0AB2EA1E19A2EF3E0BF2EE7
:107E6000A2D0813461F49FD0082FAFD0023811F036
:107E7000013811F484E001C083E08DD089C08234E0
:107E800011F484E103C0853419F485E0A6D080C0E4
:107E9000853579F488D0E82EFF2485D0082F10E0AE
:107EA000102F00270E291F29000F111F8ED06801E7
:107EB0006FC0863521F484E090D080E0DECF843638
:107EC00009F040C070D06FD0082F6DD080E0C81688
:107ED00080E7D80618F4F601B7BEE895C0E0D1E017
:107EE00062D089930C17E1F7F0E0CF16F0E7DF06D8
:107EF00018F0F601B7BEE89568D007B600FCFDCFD4
:107F0000A601A0E0B1E02C9130E011968C91119780
:107F100090E0982F8827822B932B1296FA010C0160
:107F200087BEE89511244E5F5F4FF1E0A038BF0790
:107F300051F7F601A7BEE89507B600FCFDCF97BE46
:107F4000E89526C08437B1F42ED02DD0F82E2BD052
:107F50003CD0F601EF2C8F010F5F1F4F84911BD097
:107F6000EA94F801C1F70894C11CD11CFA94CF0C13
:107F7000D11C0EC0853739F428D08EE10CD085E9AC
:107F80000AD08FE07ACF813511F488E018D01DD067
:107F900080E101D065CF982F8091C00085FFFCCF94
:107FA0009093C60008958091C00087FFFCCF809118
:107FB000C00084FD01C0A8958091C6000895E0E648
:107FC000F0E098E1908380830895EDDF803219F02E
:107FD00088E0F5DFFFCF84E1DECF1F93182FE3DFCA
:107FE0001150E9F7F2DF1F91089580E0E8DFEE27F6
:047FF000FF270994CA
:027FFE00040479
:00000001FF
