:100000000C9461000C9473000C9473000C947300B6
:100010000C9473000C9473000C9473000C94730094
:100020000C9473000C9473000C9473000C94730084
:100030000C9473000C9473000C9473000C94730074
:100040000C9421010C9473000C9473000C947300B5
:100050000C9473000C9473000C9473000C94730054
:100060000C9473000C94730000000000240027001F
:100070002A0000000000250028002B0000000000DE
:1000800023002600290004040404040404040202DA
:100090000202020203030303030301020408102007
:1000A0004080010204081020010204081020000012
:1000B0000008000201000003040700000000000027
:1000C000000011241FBECFEFD8E0DEBFCDBF21E07E
:1000D000A0E0B1E001C01D92A930B207E1F70E9493
:1000E0006B010C9411020C940000833081F028F411
:1000F000813099F08230A9F008958730A9F08830D6
:10010000C9F08430B1F4809180008F7D03C080916C
:1001100080008F7780938000089584B58F7784BDA9
:10012000089584B58F7DFBCF8091B0008F77809349
:10013000B00008958091B0008F7DF9CFCF93DF9309
:10014000E0EBF0E08491ECE9F0E0D491E8E8F0E055
:10015000C491CC23A1F081110E947500EC2FF0E036
:10016000EE0FFF1FE458FF4FA591B491EC91ED23E2
:1001700081E090E009F480E0DF91CF91089580E084
:1001800090E0FACF1F93CF93DF93282F30E0F9014F
:10019000E255FF4F8491F901E656FF4FD491F901E2
:1001A000EA57FF4FC491CC23A9F0162F81110E946A
:1001B0007500EC2FF0E0EE0FFF1FEE58FF4FA591FA
:1001C000B4918FB7F894EC91111108C0D095DE234B
:1001D000DC938FBFDF91CF911F910895DE2BF8CF75
:1001E000CF93DF9390E0FC01E656FF4F24918A57AE
:1001F0009F4FFC0184918823D1F090E0880F991FD4
:10020000FC01E859FF4FA591B491FC01EE58FF4F56
:10021000C591D49161110EC09FB7F8948C91E22FD3
:10022000E0958E238C932881E223E8839FBFDF91A2
:10023000CF9108958FB7F894EC91E22BEC938FBF98
:10024000F6CF1F920F920FB60F9211242F933F9368
:100250008F939F93AF93BF93809105019091060177
:10026000A0910701B09108013091040123E0230F10
:100270002D3758F50196A11DB11D209304018093DF
:10028000050190930601A0930701B09308018091A6
:10029000000190910101A0910201B091030101962A
:1002A000A11DB11D8093000190930101A093020153
:1002B000B0930301BF91AF919F918F913F912F9187
:1002C0000F900FBE0F901F90189526E8230F0296EF
:1002D000A11DB11DD2CF789484B5826084BD84B550
:1002E000816084BD85B5826085BD85B5816085BD31
:1002F00080916E00816080936E00109281008091E9
:100300008100826080938100809181008160809370
:100310008100809180008160809380008091B10095
:1003200084608093B1008091B00081608093B000C0
:1003300080917A00846080937A0080917A00826054
:1003400080937A0080917A00816080937A00809116
:100350007A00806880937A001092C10061E08CE09E
:100360000E94F00061E083E00E94F00061E089E01B
:100370000E94F00060E082E00E94F00061E08DE009
:100380000E94F00061E08BE00E94F00061E088E0F4
:100390000E94F00060E084E00E94F000C0E0D0E045
:1003A0000E949E00019709F560E08CE00E94C20067
:1003B0006FEF83E00E94C20061E089E00E94C2000A
:1003C0000E949E000197F9F460E08DE00E94C20057
:1003D0006FEF8BE00E94C20061E088E00E94C200E3
:1003E0002097F1F20E940000DBCF61E08CE00E94D8
:1003F000C20061E083E00E94F00061E083E00E94BF
:10040000C20060E0DACF61E08DE00E94C20061E0EE
:100410008BE00E94F00061E08BE00E94C20060E08F
:06042000DCCFF894FFCFD1
:00000001FF
